:06098000010A000109005C
:10090200E4F50B750C091209657BFF7A09797812F7
:100912000000AF0C1200007F04120000E50A60FC28
:100922007E007F001200008F0BE50BB40405AF00C0
:10093200120978E50BB4060DAB00AA00A900120952
:0A0942004CFF120978E4F50A80D298
:10096500759850438920758DF3758BF3D28ED2AF70
:03097500D2AC22DF
:080978008F993099FDC299220C
:0300230002088C44
:0F088C00C0E0C083C082C0D075D000C006C007D6
:10089B00309857C298AF99E509701CEF6448704ABD
:1008AB00F508750901AE08050874002EF582E434CD
:1008BB0000F583EFF080337414D395084026AE080F
:1008CB00050874002EF582E43400F583EFF0E5089B
:1008DB00D394044015900001E0FFE5089F400B7591
:0A08EB000A0180007509007508007D
:0D08F500D007D006D0D0D082D083D0E03222
:03000000020800F3
:0C080000787FE4F6D8FD75810C020847F3
:10094C00BB010689828A83E0225002E722BBFE02A9
:09095C00E32289828A83E49322DC
:10080C00020902E493A3F8E493A34003F68001F2F7
:10081C0008DFF48029E493A3F85407240CC8C333ED
:10082C00C4540F4420C8834004F456800146F6DFBC
:10083C00E4800B0102040810204080900980E47EC3
:10084C00019360BCA3FF543F30E509541FFEE493B1
:10085C00A360010ECF54C025E060A840B8E493A378
:10086C00FAE493A3F8E493A3C8C582C8CAC583CAA3
:10087C00F0A3C8C582C8CAC583CADFE9DEE780BE5B
:010986000070
:00000001FF
